{
  "contractName": "AmongAll",
  "abi": [
    {
      "stateMutability": "payable",
      "type": "receive",
      "payable": true
    },
    {
      "inputs": [
        {
          "internalType": "uint256",
          "name": "mobile_price",
          "type": "uint256"
        }
      ],
      "name": "register",
      "outputs": [
        {
          "internalType": "bool",
          "name": "",
          "type": "bool"
        }
      ],
      "stateMutability": "payable",
      "type": "function",
      "payable": true
    },
    {
      "inputs": [
        {
          "internalType": "enum AmongAll.C_type",
          "name": "claim_type",
          "type": "uint8"
        }
      ],
      "name": "createClaim",
      "outputs": [
        {
          "internalType": "bool",
          "name": "",
          "type": "bool"
        }
      ],
      "stateMutability": "nonpayable",
      "type": "function"
    },
    {
      "inputs": [
        {
          "internalType": "address",
          "name": "_address",
          "type": "address"
        }
      ],
      "name": "acceptClaim",
      "outputs": [
        {
          "internalType": "bool",
          "name": "",
          "type": "bool"
        }
      ],
      "stateMutability": "nonpayable",
      "type": "function"
    },
    {
      "inputs": [],
      "name": "executeClaim",
      "outputs": [
        {
          "internalType": "bool",
          "name": "",
          "type": "bool"
        }
      ],
      "stateMutability": "nonpayable",
      "type": "function"
    },
    {
      "inputs": [],
      "name": "getTotalBalance",
      "outputs": [
        {
          "internalType": "uint256",
          "name": "",
          "type": "uint256"
        }
      ],
      "stateMutability": "view",
      "type": "function",
      "constant": true
    },
    {
      "inputs": [],
      "name": "getTotalUsers",
      "outputs": [
        {
          "internalType": "uint256",
          "name": "",
          "type": "uint256"
        }
      ],
      "stateMutability": "view",
      "type": "function",
      "constant": true
    },
    {
      "inputs": [],
      "name": "getTotalClaims",
      "outputs": [
        {
          "internalType": "uint256",
          "name": "",
          "type": "uint256"
        }
      ],
      "stateMutability": "view",
      "type": "function",
      "constant": true
    },
    {
      "inputs": [
        {
          "internalType": "address",
          "name": "_address",
          "type": "address"
        }
      ],
      "name": "getMobilePrice",
      "outputs": [
        {
          "internalType": "uint256",
          "name": "",
          "type": "uint256"
        }
      ],
      "stateMutability": "view",
      "type": "function",
      "constant": true
    },
    {
      "inputs": [
        {
          "internalType": "address",
          "name": "_address",
          "type": "address"
        }
      ],
      "name": "getClaimStatus",
      "outputs": [
        {
          "internalType": "enum AmongAll.C_status",
          "name": "",
          "type": "uint8"
        }
      ],
      "stateMutability": "view",
      "type": "function",
      "constant": true
    }
  ],
  "bytecode": "0x6080604052600a600255600260035534801561001a57600080fd5b5061197a8061002a6000396000f3fe60806040526004361061008a5760003560e01c80637df2db3f116100595780637df2db3f146101695780639be572f6146101a6578063b52de815146101d1578063c9760f71146101fc578063f207564e1461023957610094565b806312b583491461009957806316daa23b146100c45780635788d3cb146100ef5780636212ae0b1461012c57610094565b3661009457600080fd5b600080fd5b3480156100a557600080fd5b506100ae610269565b6040516100bb9190610fb7565b60405180910390f35b3480156100d057600080fd5b506100d9610271565b6040516100e69190610fb7565b60405180910390f35b3480156100fb57600080fd5b5061011660048036038101906101119190611035565b61027b565b6040516101239190610fb7565b60405180910390f35b34801561013857600080fd5b50610153600480360381019061014e9190611035565b6102c7565b604051610160919061107d565b60405180910390f35b34801561017557600080fd5b50610190600480360381019061018b91906110bd565b6107a1565b60405161019d919061107d565b60405180910390f35b3480156101b257600080fd5b506101bb61097f565b6040516101c89190610fb7565b60405180910390f35b3480156101dd57600080fd5b506101e6610988565b6040516101f3919061107d565b60405180910390f35b34801561020857600080fd5b50610223600480360381019061021e9190611035565b610d11565b6040516102309190611161565b60405180910390f35b610253600480360381019061024e91906111a8565b610d6d565b604051610260919061107d565b60405180910390f35b600047905090565b6000600154905090565b6000600660008373ffffffffffffffffffffffffffffffffffffffff1673ffffffffffffffffffffffffffffffffffffffff168152602001908152602001600020600001549050919050565b60003373ffffffffffffffffffffffffffffffffffffffff168273ffffffffffffffffffffffffffffffffffffffff161415610338576040517f08c379a000000000000000000000000000000000000000000000000000000000815260040161032f90611258565b60405180910390fd5b6000600181111561034c5761034b6110ea565b5b600660008473ffffffffffffffffffffffffffffffffffffffff1673ffffffffffffffffffffffffffffffffffffffff16815260200190815260200160002060020160010160019054906101000a900460ff1660018111156103b1576103b06110ea565b5b146103f1576040517f08c379a00000000000000000000000000000000000000000000000000000000081526004016103e8906112c4565b60405180910390fd5b60011515600660003373ffffffffffffffffffffffffffffffffffffffff1673ffffffffffffffffffffffffffffffffffffffff16815260200190815260200160002060010160009054906101000a900460ff16151514610487576040517f08c379a000000000000000000000000000000000000000000000000000000000815260040161047e90611330565b60405180910390fd5b60001515600660008473ffffffffffffffffffffffffffffffffffffffff1673ffffffffffffffffffffffffffffffffffffffff16815260200190815260200160002060020160020160003373ffffffffffffffffffffffffffffffffffffffff1673ffffffffffffffffffffffffffffffffffffffff16815260200190815260200160002060009054906101000a900460ff1615151461055d576040517f08c379a0000000000000000000000000000000000000000000000000000000008152600401610554906113c2565b60405180910390fd5b600354600660008473ffffffffffffffffffffffffffffffffffffffff1673ffffffffffffffffffffffffffffffffffffffff16815260200190815260200160002060020160000154106105e6576040517f08c379a00000000000000000000000000000000000000000000000000000000081526004016105dd90611454565b60405180910390fd5b6001600660008473ffffffffffffffffffffffffffffffffffffffff1673ffffffffffffffffffffffffffffffffffffffff16815260200190815260200160002060020160020160003373ffffffffffffffffffffffffffffffffffffffff1673ffffffffffffffffffffffffffffffffffffffff16815260200190815260200160002060006101000a81548160ff021916908315150217905550600660008373ffffffffffffffffffffffffffffffffffffffff1673ffffffffffffffffffffffffffffffffffffffff168152602001908152602001600020600201600001600081546106d3906114a3565b91905081905550600354600660008473ffffffffffffffffffffffffffffffffffffffff1673ffffffffffffffffffffffffffffffffffffffff168152602001908152602001600020600201600001541415610798576001600660008473ffffffffffffffffffffffffffffffffffffffff1673ffffffffffffffffffffffffffffffffffffffff16815260200190815260200160002060020160010160016101000a81548160ff02191690836001811115610792576107916110ea565b5b02179055505b60019050919050565b60008060028111156107b6576107b56110ea565b5b600660003373ffffffffffffffffffffffffffffffffffffffff1673ffffffffffffffffffffffffffffffffffffffff16815260200190815260200160002060020160010160009054906101000a900460ff16600281111561081b5761081a6110ea565b5b1461085b576040517f08c379a000000000000000000000000000000000000000000000000000000000815260040161085290611538565b60405180910390fd5b60011515600660003373ffffffffffffffffffffffffffffffffffffffff1673ffffffffffffffffffffffffffffffffffffffff16815260200190815260200160002060010160009054906101000a900460ff161515146108f1576040517f08c379a00000000000000000000000000000000000000000000000000000000081526004016108e890611330565b60405180910390fd5b81600660003373ffffffffffffffffffffffffffffffffffffffff1673ffffffffffffffffffffffffffffffffffffffff16815260200190815260200160002060020160010160006101000a81548160ff02191690836002811115610959576109586110ea565b5b021790555060016000815480929190610971906114a3565b919050555060019050919050565b60008054905090565b600060018081111561099d5761099c6110ea565b5b600660003373ffffffffffffffffffffffffffffffffffffffff1673ffffffffffffffffffffffffffffffffffffffff16815260200190815260200160002060020160010160019054906101000a900460ff166001811115610a0257610a016110ea565b5b14610a42576040517f08c379a0000000000000000000000000000000000000000000000000000000008152600401610a39906115ca565b60405180910390fd5b6000600660003373ffffffffffffffffffffffffffffffffffffffff1673ffffffffffffffffffffffffffffffffffffffff16815260200190815260200160002060000154905060016002811115610a9d57610a9c6110ea565b5b600660003373ffffffffffffffffffffffffffffffffffffffff1673ffffffffffffffffffffffffffffffffffffffff16815260200190815260200160002060020160010160009054906101000a900460ff166002811115610b0257610b016110ea565b5b1415610bba5760003373ffffffffffffffffffffffffffffffffffffffff1682604051610b2e9061161b565b60006040518083038185875af1925050503d8060008114610b6b576040519150601f19603f3d011682016040523d82523d6000602084013e610b70565b606091505b5050905080610bb4576040517f08c379a0000000000000000000000000000000000000000000000000000000008152600401610bab9061167c565b60405180910390fd5b50610c74565b60003373ffffffffffffffffffffffffffffffffffffffff16600283610be091906116cb565b604051610bec9061161b565b60006040518083038185875af1925050503d8060008114610c29576040519150601f19603f3d011682016040523d82523d6000602084013e610c2e565b606091505b5050905080610c72576040517f08c379a0000000000000000000000000000000000000000000000000000000008152600401610c699061167c565b60405180910390fd5b505b600660003373ffffffffffffffffffffffffffffffffffffffff1673ffffffffffffffffffffffffffffffffffffffff1681526020019081526020016000206000808201600090556001820160006101000a81549060ff0219169055600282016000808201600090556001820160006101000a81549060ff02191690556001820160016101000a81549060ff021916905550505050600191505090565b6000600660008373ffffffffffffffffffffffffffffffffffffffff1673ffffffffffffffffffffffffffffffffffffffff16815260200190815260200160002060020160010160019054906101000a900460ff169050919050565b600060025482610d7d91906116cb565b3414610dbe576040517f08c379a0000000000000000000000000000000000000000000000000000000008152600401610db59061176e565b60405180910390fd5b600254341015610e03576040517f08c379a0000000000000000000000000000000000000000000000000000000008152600401610dfa90611826565b60405180910390fd5b60008211610e46576040517f08c379a0000000000000000000000000000000000000000000000000000000008152600401610e3d906118b8565b60405180910390fd5b60001515600660003373ffffffffffffffffffffffffffffffffffffffff1673ffffffffffffffffffffffffffffffffffffffff16815260200190815260200160002060010160009054906101000a900460ff16151514610edc576040517f08c379a0000000000000000000000000000000000000000000000000000000008152600401610ed390611924565b60405180910390fd5b6001600660003373ffffffffffffffffffffffffffffffffffffffff1673ffffffffffffffffffffffffffffffffffffffff16815260200190815260200160002060010160006101000a81548160ff02191690831515021790555081600660003373ffffffffffffffffffffffffffffffffffffffff1673ffffffffffffffffffffffffffffffffffffffff16815260200190815260200160002060000181905550600080815480929190610f90906114a3565b919050555060019050919050565b6000819050919050565b610fb181610f9e565b82525050565b6000602082019050610fcc6000830184610fa8565b92915050565b600080fd5b600073ffffffffffffffffffffffffffffffffffffffff82169050919050565b600061100282610fd7565b9050919050565b61101281610ff7565b811461101d57600080fd5b50565b60008135905061102f81611009565b92915050565b60006020828403121561104b5761104a610fd2565b5b600061105984828501611020565b91505092915050565b60008115159050919050565b61107781611062565b82525050565b6000602082019050611092600083018461106e565b92915050565b600381106110a557600080fd5b50565b6000813590506110b781611098565b92915050565b6000602082840312156110d3576110d2610fd2565b5b60006110e1848285016110a8565b91505092915050565b7f4e487b7100000000000000000000000000000000000000000000000000000000600052602160045260246000fd5b6002811061112a576111296110ea565b5b50565b600081905061113b82611119565b919050565b600061114b8261112d565b9050919050565b61115b81611140565b82525050565b60006020820190506111766000830184611152565b92915050565b61118581610f9e565b811461119057600080fd5b50565b6000813590506111a28161117c565b92915050565b6000602082840312156111be576111bd610fd2565b5b60006111cc84828501611193565b91505092915050565b600082825260208201905092915050565b7f596f752063616e6e6f742061636365707420796f7572206f776e20636c61696d60008201527f2100000000000000000000000000000000000000000000000000000000000000602082015250565b60006112426021836111d5565b915061124d826111e6565b604082019050919050565b6000602082019050818103600083015261127181611235565b9050919050565b7f436c61696d20616c726561647920616363657074656421000000000000000000600082015250565b60006112ae6017836111d5565b91506112b982611278565b602082019050919050565b600060208201905081810360008301526112dd816112a1565b9050919050565b7f55736572206e6f74207265676973746572656421000000000000000000000000600082015250565b600061131a6014836111d5565b9150611325826112e4565b602082019050919050565b600060208201905081810360008301526113498161130d565b9050919050565b7f596f7520616c726561647920766f74656420666f72207468697320636c61696d60008201527f2100000000000000000000000000000000000000000000000000000000000000602082015250565b60006113ac6021836111d5565b91506113b782611350565b604082019050919050565b600060208201905081810360008301526113db8161139f565b9050919050565b7f4d696e696d756d206e756d626572206f6620616363657074732072656163686560008201527f6421000000000000000000000000000000000000000000000000000000000000602082015250565b600061143e6022836111d5565b9150611449826113e2565b604082019050919050565b6000602082019050818103600083015261146d81611431565b9050919050565b7f4e487b7100000000000000000000000000000000000000000000000000000000600052601160045260246000fd5b60006114ae82610f9e565b91507fffffffffffffffffffffffffffffffffffffffffffffffffffffffffffffffff8214156114e1576114e0611474565b5b600182019050919050565b7f436c61696d207479706520616c726561647920646566696e6564210000000000600082015250565b6000611522601b836111d5565b915061152d826114ec565b602082019050919050565b6000602082019050818103600083015261155181611515565b9050919050565b7f436c61696d20646f6573206e6f7420686176652074686520416363657074656460008201527f2073746174757321000000000000000000000000000000000000000000000000602082015250565b60006115b46028836111d5565b91506115bf82611558565b604082019050919050565b600060208201905081810360008301526115e3816115a7565b9050919050565b600081905092915050565b50565b60006116056000836115ea565b9150611610826115f5565b600082019050919050565b6000611626826115f8565b9150819050919050565b7f5472616e73666572206661696c65642e00000000000000000000000000000000600082015250565b60006116666010836111d5565b915061167182611630565b602082019050919050565b6000602082019050818103600083015261169581611659565b9050919050565b7f4e487b7100000000000000000000000000000000000000000000000000000000600052601260045260246000fd5b60006116d682610f9e565b91506116e183610f9e565b9250826116f1576116f061169c565b5b828204905092915050565b7f596f75722073686172652073686f756c64206d61746368204571756174696f6e60008201527f2031000000000000000000000000000000000000000000000000000000000000602082015250565b60006117586022836111d5565b9150611763826116fc565b604082019050919050565b600060208201905081810360008301526117878161174b565b9050919050565b7f596f75722073686172652073686f756c6420626520686967686572207468616e60008201527f2074686520636f6e7374616e7420646566696e656420696e204571756174696f60208201527f6e20310000000000000000000000000000000000000000000000000000000000604082015250565b60006118106043836111d5565b915061181b8261178e565b606082019050919050565b6000602082019050818103600083015261183f81611803565b9050919050565b7f4d6f62696c652070726963652073686f756c642062652068696768657220746860008201527f616e203000000000000000000000000000000000000000000000000000000000602082015250565b60006118a26024836111d5565b91506118ad82611846565b604082019050919050565b600060208201905081810360008301526118d181611895565b9050919050565b7f5573657220616c72656164792072656769737465726564210000000000000000600082015250565b600061190e6018836111d5565b9150611919826118d8565b602082019050919050565b6000602082019050818103600083015261193d81611901565b905091905056fea26469706673582212204d77ffb5b57931df5dc9cd74bfeb6daf7c8b89279e6fea065cab48c091b8a5bf64736f6c634300080a0033",
  "immutableReferences": {},
  "source": "// SPDX-License-Identifier: GPL-3.0\r\npragma solidity >=0.8.0 <0.9.0;\r\n\r\n/**\r\n * @title Among All Insurance Model\r\n * @notice Do not use this contract in production\r\n * @dev All function calls are currently implemented without side effects\r\n */\r\ncontract AmongAll {\r\n    \r\n    uint total_users;\r\n    uint total_claims;\r\n    uint stable_value = 10 wei;\r\n    uint minimum_accepts = 2;\r\n    IPFS_hash data;\r\n\r\n     struct IPFS_hash {\r\n        bytes1 hash_function;\r\n        bytes1 hash_size;\r\n        bytes32 digest;\r\n    }\r\n\r\n    struct User {\r\n        uint mobile_price;\r\n        bool registered;\r\n        Claim claim;\r\n        //IPFS_hash data;\r\n    }\r\n\r\n    struct Claim {\r\n        uint votes;\r\n        C_type claim_type;\r\n        C_status claim_status;\r\n        mapping(address => bool) voted;\r\n    }\r\n    \r\n    enum C_type {None, Loss, Damage}\r\n    enum C_status {Unaccepted, Accepted}\r\n    \r\n    mapping(address => User) users;\r\n\r\n    // @notice Register a user\r\n    // @dev Msg.value based on the following formula: (mobile_price x stable_value). Only for unregistered users\r\n    // @param mobile_price The value of the mobile phone\r\n    // @return Transaction execution status\r\n    function register(uint mobile_price) public payable returns (bool){\r\n        require(msg.value == mobile_price / stable_value, \"Your share should match Equation 1\");\r\n        require(msg.value >= stable_value, \"Your share should be higher than the constant defined in Equation 1\");\r\n        require(mobile_price > 0, \"Mobile price should be higher than 0\");\r\n        require(users[msg.sender].registered == false, \"User already registered!\");\r\n\r\n        users[msg.sender].registered = true;\r\n        users[msg.sender].mobile_price = mobile_price;\r\n\r\n        total_users++;\r\n\r\n        return true;\r\n    }\r\n    \r\n    // @notice Create a claim\r\n    // @dev Only if a claim was not created previously. Only for registered users\r\n    // @param claim_type The type of claim (Loss = 1, Damage = 2)\r\n    // @return Transaction execution status\r\n    function createClaim(C_type claim_type) external returns (bool){\r\n        require(users[msg.sender].claim.claim_type == C_type.None, \"Claim type already defined!\");\r\n        require(users[msg.sender].registered == true, \"User not registered!\");\r\n        \r\n        users[msg.sender].claim.claim_type = claim_type;\r\n\r\n        total_claims++;\r\n        \r\n        return true;\r\n    }\r\n    \r\n    // @notice Accept a claim\r\n    // @dev Only registered users can accept claims from other users. It is required a #minimum_accepts of approvals\r\n    // @param _address The address of the user whose request you want to accept\r\n    // @return Transaction execution status    \r\n    function acceptClaim(address _address) external returns (bool) {\r\n        require(_address != msg.sender, \"You cannot accept your own claim!\");\r\n        require(users[_address].claim.claim_status == C_status.Unaccepted, \"Claim already accepted!\");\r\n        require(users[msg.sender].registered == true, \"User not registered!\");\r\n        require(users[_address].claim.voted[msg.sender] == false, \"You already voted for this claim!\");\r\n        require(users[_address].claim.votes < minimum_accepts, \"Minimum number of accepts reached!\");\r\n        \r\n        users[_address].claim.voted[msg.sender] = true;\r\n        ++users[_address].claim.votes;\r\n        \r\n        if(users[_address].claim.votes == minimum_accepts){\r\n            users[_address].claim.claim_status = C_status.Accepted;    \r\n        }\r\n\r\n        return true;\r\n    }\r\n\r\n    // @notice Execute the claim and withdraw the funds\r\n    // @dev Only for accepted claims\r\n    // @return Transaction execution status    \r\n    function executeClaim() external returns (bool) {\r\n        require(users[msg.sender].claim.claim_status == C_status.Accepted, \"Claim does not have the Accepted status!\");\r\n        \r\n        uint amount = users[msg.sender].mobile_price;\r\n        \r\n        if(users[msg.sender].claim.claim_type == C_type.Loss) {\r\n            (bool success, ) = msg.sender.call{value: amount}(\"\");\r\n            require(success, \"Transfer failed.\");    \r\n        } else {\r\n            (bool success, ) = msg.sender.call{value: amount/2}(\"\");\r\n            require(success, \"Transfer failed.\");\r\n        }\r\n\r\n        delete users[msg.sender];\r\n        \r\n        return true;\r\n    }\r\n\r\n    // @notice Avoid sending Ether to the contract.\r\n    receive() external payable {\r\n        revert();\r\n    }\r\n    \r\n    // @notice Get the total balance\r\n    // @return The ether stored in the contract\r\n    function getTotalBalance() public view returns (uint) {\r\n        return address(this).balance;\r\n    }\r\n\r\n    // @notice Get the total of users registered\r\n    // @return Number of users registered   \r\n    function getTotalUsers() public view returns (uint){\r\n        return total_users;\r\n    }\r\n\r\n    // @notice Get the total of claims\r\n    // @return Number of claims\r\n    function getTotalClaims() public view returns (uint) {\r\n        return total_claims;\r\n    }\r\n\r\n    // @notice Get the mobile phone price\r\n    // @return The mobile phone value\r\n    function getMobilePrice(address _address) public view returns (uint){\r\n        return (users[_address].mobile_price);\r\n    }\r\n\r\n    // @notice Get the status of a claim\r\n    // @param _address The address of the user whose request status you want to check\r\n    // @return The status of the claim\r\n    function getClaimStatus (address _address) public view returns (C_status) {\r\n        return users[_address].claim.claim_status;\r\n    }\r\n}",
  "sourcePath": "C:\\Users\\saul.cordero\\Pictures\\BLOCK\\dappAseguradora\\contracts\\AmongAll.sol",
  "compiler": {
    "name": "solc",
    "version": "0.8.10+commit.fc410830.Emscripten.clang"
  },
  "schemaVersion": "3.4.4",
  "updatedAt": "2022-01-06T20:14:37.336Z",
  "networkType": "ethereum",
  "devdoc": {
    "details": "All function calls are currently implemented without side effects",
    "kind": "dev",
    "methods": {},
    "title": "Among All Insurance Model",
    "version": 1
  },
  "userdoc": {
    "kind": "user",
    "methods": {},
    "notice": "Do not use this contract in production",
    "version": 1
  }
}